{
  "_format": "hh-sol-artifact-1",
  "contractName": "StackUp",
  "sourceName": "contracts/Stackup.sol",
  "abi": [
    {
      "inputs": [],
      "stateMutability": "nonpayable",
      "type": "constructor"
    },
    {
      "inputs": [],
      "name": "admin",
      "outputs": [
        {
          "internalType": "address",
          "name": "",
          "type": "address"
        }
      ],
      "stateMutability": "view",
      "type": "function"
    },
    {
      "inputs": [
        {
          "internalType": "string",
          "name": "_title",
          "type": "string"
        },
        {
          "internalType": "uint8",
          "name": "_reward",
          "type": "uint8"
        },
        {
          "internalType": "uint256",
          "name": "_numberOfRewards",
          "type": "uint256"
        }
      ],
      "name": "createQuest",
      "outputs": [],
      "stateMutability": "nonpayable",
      "type": "function"
    },
    {
      "inputs": [
        {
          "internalType": "uint256",
          "name": "_questId",
          "type": "uint256"
        }
      ],
      "name": "joinQuest",
      "outputs": [],
      "stateMutability": "nonpayable",
      "type": "function"
    },
    {
      "inputs": [],
      "name": "nextQuestId",
      "outputs": [
        {
          "internalType": "uint256",
          "name": "",
          "type": "uint256"
        }
      ],
      "stateMutability": "view",
      "type": "function"
    },
    {
      "inputs": [
        {
          "internalType": "address",
          "name": "",
          "type": "address"
        },
        {
          "internalType": "uint256",
          "name": "",
          "type": "uint256"
        }
      ],
      "name": "playerQuestStatuses",
      "outputs": [
        {
          "internalType": "enum StackUp.playerQuestStatus",
          "name": "",
          "type": "uint8"
        }
      ],
      "stateMutability": "view",
      "type": "function"
    },
    {
      "inputs": [
        {
          "internalType": "uint256",
          "name": "",
          "type": "uint256"
        }
      ],
      "name": "quests",
      "outputs": [
        {
          "internalType": "uint256",
          "name": "questId",
          "type": "uint256"
        },
        {
          "internalType": "uint256",
          "name": "numberOfPlayers",
          "type": "uint256"
        },
        {
          "internalType": "string",
          "name": "title",
          "type": "string"
        },
        {
          "internalType": "uint8",
          "name": "reward",
          "type": "uint8"
        },
        {
          "internalType": "uint256",
          "name": "numberOfRewards",
          "type": "uint256"
        }
      ],
      "stateMutability": "view",
      "type": "function"
    },
    {
      "inputs": [
        {
          "internalType": "uint256",
          "name": "_questId",
          "type": "uint256"
        }
      ],
      "name": "submitQuest",
      "outputs": [],
      "stateMutability": "nonpayable",
      "type": "function"
    }
  ],
  "bytecode": "0x6080604052348015600f57600080fd5b50336000806101000a81548173ffffffffffffffffffffffffffffffffffffffff021916908373ffffffffffffffffffffffffffffffffffffffff1602179055506111848061005f6000396000f3fe608060405234801561001057600080fd5b506004361061007d5760003560e01c8063ad1c8a241161005b578063ad1c8a24146100ea578063d638c98314610106578063e085f98014610124578063f851a440146101585761007d565b80632d96e8f21461008257806378ff2bda1461009e57806399f7358c146100ba575b600080fd5b61009c6004803603810190610097919061088a565b610176565b005b6100b860048036038101906100b391906108fe565b610300565b005b6100d460048036038101906100cf9190610989565b6104dd565b6040516100e19190610a40565b60405180910390f35b61010460048036038101906100ff91906108fe565b61050c565b005b61010e6106b7565b60405161011b9190610a6a565b60405180910390f35b61013e600480360381019061013991906108fe565b6106bd565b60405161014f959493929190610b24565b60405180910390f35b610160610788565b60405161016d9190610b8d565b60405180910390f35b60008054906101000a900473ffffffffffffffffffffffffffffffffffffffff1673ffffffffffffffffffffffffffffffffffffffff163373ffffffffffffffffffffffffffffffffffffffff1614610204576040517f08c379a00000000000000000000000000000000000000000000000000000000081526004016101fb90610c1a565b60405180910390fd5b6040518060a0016040528060015481526020016000815260200185858080601f016020809104026020016040519081016040528093929190818152602001838380828437600081840152601f19601f8201169050808301925050505050505081526020018360ff16815260200182815250600260006001548152602001908152602001600020600082015181600001556020820151816001015560408201518160020190816102b39190610e75565b5060608201518160030160006101000a81548160ff021916908360ff16021790555060808201518160040155905050600160008154809291906102f590610f76565b919050555050505050565b8060006002600083815260200190815260200160002060030160009054906101000a900460ff1660ff160361036a576040517f08c379a000000000000000000000000000000000000000000000000000000000815260040161036190611030565b60405180910390fd5b6000600281111561037e5761037d6109c9565b5b600360003373ffffffffffffffffffffffffffffffffffffffff1673ffffffffffffffffffffffffffffffffffffffff168152602001908152602001600020600084815260200190815260200160002060009054906101000a900460ff1660028111156103ee576103ed6109c9565b5b1461042e576040517f08c379a0000000000000000000000000000000000000000000000000000000008152600401610425906110c2565b60405180910390fd5b6001600360003373ffffffffffffffffffffffffffffffffffffffff1673ffffffffffffffffffffffffffffffffffffffff168152602001908152602001600020600084815260200190815260200160002060006101000a81548160ff021916908360028111156104a2576104a16109c9565b5b021790555060006002600084815260200190815260200160002090508060010160008154809291906104d390610f76565b9190505550505050565b60036020528160005260406000206020528060005260406000206000915091509054906101000a900460ff1681565b8060006002600083815260200190815260200160002060030160009054906101000a900460ff1660ff1603610576576040517f08c379a000000000000000000000000000000000000000000000000000000000815260040161056d90611030565b60405180910390fd5b6001600281111561058a576105896109c9565b5b600360003373ffffffffffffffffffffffffffffffffffffffff1673ffffffffffffffffffffffffffffffffffffffff168152602001908152602001600020600084815260200190815260200160002060009054906101000a900460ff1660028111156105fa576105f96109c9565b5b1461063a576040517f08c379a00000000000000000000000000000000000000000000000000000000081526004016106319061112e565b60405180910390fd5b6002600360003373ffffffffffffffffffffffffffffffffffffffff1673ffffffffffffffffffffffffffffffffffffffff168152602001908152602001600020600084815260200190815260200160002060006101000a81548160ff021916908360028111156106ae576106ad6109c9565b5b02179055505050565b60015481565b60026020528060005260406000206000915090508060000154908060010154908060020180546106ec90610c98565b80601f016020809104026020016040519081016040528092919081815260200182805461071890610c98565b80156107655780601f1061073a57610100808354040283529160200191610765565b820191906000526020600020905b81548152906001019060200180831161074857829003601f168201915b5050505050908060030160009054906101000a900460ff16908060040154905085565b60008054906101000a900473ffffffffffffffffffffffffffffffffffffffff1681565b600080fd5b600080fd5b600080fd5b600080fd5b600080fd5b60008083601f8401126107db576107da6107b6565b5b8235905067ffffffffffffffff8111156107f8576107f76107bb565b5b602083019150836001820283011115610814576108136107c0565b5b9250929050565b600060ff82169050919050565b6108318161081b565b811461083c57600080fd5b50565b60008135905061084e81610828565b92915050565b6000819050919050565b61086781610854565b811461087257600080fd5b50565b6000813590506108848161085e565b92915050565b600080600080606085870312156108a4576108a36107ac565b5b600085013567ffffffffffffffff8111156108c2576108c16107b1565b5b6108ce878288016107c5565b945094505060206108e18782880161083f565b92505060406108f287828801610875565b91505092959194509250565b600060208284031215610914576109136107ac565b5b600061092284828501610875565b91505092915050565b600073ffffffffffffffffffffffffffffffffffffffff82169050919050565b60006109568261092b565b9050919050565b6109668161094b565b811461097157600080fd5b50565b6000813590506109838161095d565b92915050565b600080604083850312156109a05761099f6107ac565b5b60006109ae85828601610974565b92505060206109bf85828601610875565b9150509250929050565b7f4e487b7100000000000000000000000000000000000000000000000000000000600052602160045260246000fd5b60038110610a0957610a086109c9565b5b50565b6000819050610a1a826109f8565b919050565b6000610a2a82610a0c565b9050919050565b610a3a81610a1f565b82525050565b6000602082019050610a556000830184610a31565b92915050565b610a6481610854565b82525050565b6000602082019050610a7f6000830184610a5b565b92915050565b600081519050919050565b600082825260208201905092915050565b60005b83811015610abf578082015181840152602081019050610aa4565b60008484015250505050565b6000601f19601f8301169050919050565b6000610ae782610a85565b610af18185610a90565b9350610b01818560208601610aa1565b610b0a81610acb565b840191505092915050565b610b1e8161081b565b82525050565b600060a082019050610b396000830188610a5b565b610b466020830187610a5b565b8181036040830152610b588186610adc565b9050610b676060830185610b15565b610b746080830184610a5b565b9695505050505050565b610b878161094b565b82525050565b6000602082019050610ba26000830184610b7e565b92915050565b7f4f6e6c79207468652061646d696e2063616e206372656174652061207175657360008201527f742e000000000000000000000000000000000000000000000000000000000000602082015250565b6000610c04602283610a90565b9150610c0f82610ba8565b604082019050919050565b60006020820190508181036000830152610c3381610bf7565b9050919050565b7f4e487b7100000000000000000000000000000000000000000000000000000000600052604160045260246000fd5b7f4e487b7100000000000000000000000000000000000000000000000000000000600052602260045260246000fd5b60006002820490506001821680610cb057607f821691505b602082108103610cc357610cc2610c69565b5b50919050565b60008190508160005260206000209050919050565b60006020601f8301049050919050565b600082821b905092915050565b600060088302610d2b7fffffffffffffffffffffffffffffffffffffffffffffffffffffffffffffffff82610cee565b610d358683610cee565b95508019841693508086168417925050509392505050565b6000819050919050565b6000610d72610d6d610d6884610854565b610d4d565b610854565b9050919050565b6000819050919050565b610d8c83610d57565b610da0610d9882610d79565b848454610cfb565b825550505050565b600090565b610db5610da8565b610dc0818484610d83565b505050565b5b81811015610de457610dd9600082610dad565b600181019050610dc6565b5050565b601f821115610e2957610dfa81610cc9565b610e0384610cde565b81016020851015610e12578190505b610e26610e1e85610cde565b830182610dc5565b50505b505050565b600082821c905092915050565b6000610e4c60001984600802610e2e565b1980831691505092915050565b6000610e658383610e3b565b9150826002028217905092915050565b610e7e82610a85565b67ffffffffffffffff811115610e9757610e96610c3a565b5b610ea18254610c98565b610eac828285610de8565b600060209050601f831160018114610edf5760008415610ecd578287015190505b610ed78582610e59565b865550610f3f565b601f198416610eed86610cc9565b60005b82811015610f1557848901518255600182019150602085019450602081019050610ef0565b86831015610f325784890151610f2e601f891682610e3b565b8355505b6001600288020188555050505b505050505050565b7f4e487b7100000000000000000000000000000000000000000000000000000000600052601160045260246000fd5b6000610f8182610854565b91507fffffffffffffffffffffffffffffffffffffffffffffffffffffffffffffffff8203610fb357610fb2610f47565b5b600182019050919050565b7f5175657374207769746820676976656e20696420646f6573206e6f742065786960008201527f7374000000000000000000000000000000000000000000000000000000000000602082015250565b600061101a602283610a90565b915061102582610fbe565b604082019050919050565b600060208201905081810360008301526110498161100d565b9050919050565b7f506c6179657220616c7265616479206a6f696e65642f7375626d69747465642060008201527f746869732071756573742e000000000000000000000000000000000000000000602082015250565b60006110ac602b83610a90565b91506110b782611050565b604082019050919050565b600060208201905081810360008301526110db8161109f565b9050919050565b7f506c61796572206d757374206669727374206a6f696e20746865207175657374600082015250565b6000611118602083610a90565b9150611123826110e2565b602082019050919050565b600060208201905081810360008301526111478161110b565b905091905056fea264697066735822122036aefded8f63b9c76a87f0ed4345c8a5e0aa3dd4a43faa73e893b663334b1a1264736f6c634300081c0033",
  "linkReferences": {},
  "deployedLinkReferences": {}
}